{
    "_format": "hh-sol-artifact-1",
    "contractName": "Certificate",
    "sourceName": "contracts/Certificate.sol",
    "abi": [
        {
            "inputs": [],
            "stateMutability": "nonpayable",
            "type": "constructor"
        },
        {
            "inputs": [
                {
                    "internalType": "address",
                    "name": "owner",
                    "type": "address"
                }
            ],
            "name": "OwnableInvalidOwner",
            "type": "error"
        },
        {
            "inputs": [
                {
                    "internalType": "address",
                    "name": "account",
                    "type": "address"
                }
            ],
            "name": "OwnableUnauthorizedAccount",
            "type": "error"
        },
        {
            "anonymous": false,
            "inputs": [
                {
                    "indexed": true,
                    "internalType": "uint256",
                    "name": "certificateId",
                    "type": "uint256"
                },
                {
                    "indexed": false,
                    "internalType": "string",
                    "name": "name",
                    "type": "string"
                },
                {
                    "indexed": false,
                    "internalType": "string",
                    "name": "course",
                    "type": "string"
                }
            ],
            "name": "CertificateIssued",
            "type": "event"
        },
        {
            "anonymous": false,
            "inputs": [
                {
                    "indexed": true,
                    "internalType": "address",
                    "name": "previousOwner",
                    "type": "address"
                },
                {
                    "indexed": true,
                    "internalType": "address",
                    "name": "newOwner",
                    "type": "address"
                }
            ],
            "name": "OwnershipTransferred",
            "type": "event"
        },
        {
            "inputs": [
                {
                    "internalType": "uint256",
                    "name": "certificateId",
                    "type": "uint256"
                },
                {
                    "internalType": "string",
                    "name": "name",
                    "type": "string"
                },
                {
                    "internalType": "string",
                    "name": "course",
                    "type": "string"
                },
                {
                    "internalType": "string",
                    "name": "grade",
                    "type": "string"
                },
                {
                    "internalType": "string",
                    "name": "issueDate",
                    "type": "string"
                }
            ],
            "name": "issueCertificate",
            "outputs": [],
            "stateMutability": "nonpayable",
            "type": "function"
        },
        {
            "inputs": [],
            "name": "owner",
            "outputs": [
                {
                    "internalType": "address",
                    "name": "",
                    "type": "address"
                }
            ],
            "stateMutability": "view",
            "type": "function"
        },
        {
            "inputs": [],
            "name": "renounceOwnership",
            "outputs": [],
            "stateMutability": "nonpayable",
            "type": "function"
        },
        {
            "inputs": [
                {
                    "internalType": "address",
                    "name": "newOwner",
                    "type": "address"
                }
            ],
            "name": "transferOwnership",
            "outputs": [],
            "stateMutability": "nonpayable",
            "type": "function"
        },
        {
            "inputs": [
                {
                    "internalType": "uint256",
                    "name": "certificateId",
                    "type": "uint256"
                }
            ],
            "name": "verifyCertificate",
            "outputs": [
                {
                    "internalType": "string",
                    "name": "name",
                    "type": "string"
                },
                {
                    "internalType": "string",
                    "name": "course",
                    "type": "string"
                },
                {
                    "internalType": "string",
                    "name": "grade",
                    "type": "string"
                },
                {
                    "internalType": "string",
                    "name": "issueDate",
                    "type": "string"
                }
            ],
            "stateMutability": "view",
            "type": "function"
        }
    ],
    "bytecode": "0x608060405234801561001057600080fd5b5033600073ffffffffffffffffffffffffffffffffffffffff168173ffffffffffffffffffffffffffffffffffffffff16036100845760006040517f1e4fbdf700000000000000000000000000000000000000000000000000000000815260040161007b919061019e565b60405180910390fd5b6100938161009960201b60201c565b506101b9565b60008060009054906101000a900473ffffffffffffffffffffffffffffffffffffffff169050816000806101000a81548173ffffffffffffffffffffffffffffffffffffffff021916908373ffffffffffffffffffffffffffffffffffffffff1602179055508173ffffffffffffffffffffffffffffffffffffffff168173ffffffffffffffffffffffffffffffffffffffff167f8be0079c531659141344cd1fd0a4f28419497f9722a3daafe3b4186f6b6457e060405160405180910390a35050565b600073ffffffffffffffffffffffffffffffffffffffff82169050919050565b60006101888261015d565b9050919050565b6101988161017d565b82525050565b60006020820190506101b3600083018461018f565b92915050565b610ead806101c86000396000f3fe608060405234801561001057600080fd5b50600436106100575760003560e01c80631692a9421461005c578063715018a61461008f5780638da5cb5b14610099578063d8e6219e146100b7578063f2fde38b146100d3575b600080fd5b61007660048036038101906100719190610703565b6100ef565b60405161008694939291906107c0565b60405180910390f35b6100976103cb565b005b6100a16103df565b6040516100ae9190610862565b60405180910390f35b6100d160048036038101906100cc91906109b2565b610408565b005b6100ed60048036038101906100e89190610ac9565b6104e0565b005b60608060608060006001600087815260200190815260200160002060405180608001604052908160008201805461012590610b25565b80601f016020809104026020016040519081016040528092919081815260200182805461015190610b25565b801561019e5780601f106101735761010080835404028352916020019161019e565b820191906000526020600020905b81548152906001019060200180831161018157829003601f168201915b505050505081526020016001820180546101b790610b25565b80601f01602080910402602001604051908101604052809291908181526020018280546101e390610b25565b80156102305780601f1061020557610100808354040283529160200191610230565b820191906000526020600020905b81548152906001019060200180831161021357829003601f168201915b5050505050815260200160028201805461024990610b25565b80601f016020809104026020016040519081016040528092919081815260200182805461027590610b25565b80156102c25780601f10610297576101008083540402835291602001916102c2565b820191906000526020600020905b8154815290600101906020018083116102a557829003601f168201915b505050505081526020016003820180546102db90610b25565b80601f016020809104026020016040519081016040528092919081815260200182805461030790610b25565b80156103545780601f1061032957610100808354040283529160200191610354565b820191906000526020600020905b81548152906001019060200180831161033757829003601f168201915b50505050508152505090506000816000015151116103a7576040517f08c379a000000000000000000000000000000000000000000000000000000000815260040161039e90610ba2565b60405180910390fd5b80600001518160200151826040015183606001519450945094509450509193509193565b6103d3610566565b6103dd60006105ed565b565b60008060009054906101000a900473ffffffffffffffffffffffffffffffffffffffff16905090565b610410610566565b6040518060800160405280858152602001848152602001838152602001828152506001600087815260200190815260200160002060008201518160000190816104599190610d6e565b50602082015181600101908161046f9190610d6e565b5060408201518160020190816104859190610d6e565b50606082015181600301908161049b9190610d6e565b50905050847f55e235e38225040825e04ea5d7545c53f47415b5543ec6bf898aa3a96742d5f985856040516104d1929190610e40565b60405180910390a25050505050565b6104e8610566565b600073ffffffffffffffffffffffffffffffffffffffff168173ffffffffffffffffffffffffffffffffffffffff160361055a5760006040517f1e4fbdf70000000000000000000000000000000000000000000000000000000081526004016105519190610862565b60405180910390fd5b610563816105ed565b50565b61056e6106b1565b73ffffffffffffffffffffffffffffffffffffffff1661058c6103df565b73ffffffffffffffffffffffffffffffffffffffff16146105eb576105af6106b1565b6040517f118cdaa70000000000000000000000000000000000000000000000000000000081526004016105e29190610862565b60405180910390fd5b565b60008060009054906101000a900473ffffffffffffffffffffffffffffffffffffffff169050816000806101000a81548173ffffffffffffffffffffffffffffffffffffffff021916908373ffffffffffffffffffffffffffffffffffffffff1602179055508173ffffffffffffffffffffffffffffffffffffffff168173ffffffffffffffffffffffffffffffffffffffff167f8be0079c531659141344cd1fd0a4f28419497f9722a3daafe3b4186f6b6457e060405160405180910390a35050565b600033905090565b6000604051905090565b600080fd5b600080fd5b6000819050919050565b6106e0816106cd565b81146106eb57600080fd5b50565b6000813590506106fd816106d7565b92915050565b600060208284031215610719576107186106c3565b5b6000610727848285016106ee565b91505092915050565b600081519050919050565b600082825260208201905092915050565b60005b8381101561076a57808201518184015260208101905061074f565b60008484015250505050565b6000601f19601f8301169050919050565b600061079282610730565b61079c818561073b565b93506107ac81856020860161074c565b6107b581610776565b840191505092915050565b600060808201905081810360008301526107da8187610787565b905081810360208301526107ee8186610787565b905081810360408301526108028185610787565b905081810360608301526108168184610787565b905095945050505050565b600073ffffffffffffffffffffffffffffffffffffffff82169050919050565b600061084c82610821565b9050919050565b61085c81610841565b82525050565b60006020820190506108776000830184610853565b92915050565b600080fd5b600080fd5b7f4e487b7100000000000000000000000000000000000000000000000000000000600052604160045260246000fd5b6108bf82610776565b810181811067ffffffffffffffff821117156108de576108dd610887565b5b80604052505050565b60006108f16106b9565b90506108fd82826108b6565b919050565b600067ffffffffffffffff82111561091d5761091c610887565b5b61092682610776565b9050602081019050919050565b82818337600083830152505050565b600061095561095084610902565b6108e7565b90508281526020810184848401111561097157610970610882565b5b61097c848285610933565b509392505050565b600082601f8301126109995761099861087d565b5b81356109a9848260208601610942565b91505092915050565b600080600080600060a086880312156109ce576109cd6106c3565b5b60006109dc888289016106ee565b955050602086013567ffffffffffffffff8111156109fd576109fc6106c8565b5b610a0988828901610984565b945050604086013567ffffffffffffffff811115610a2a57610a296106c8565b5b610a3688828901610984565b935050606086013567ffffffffffffffff811115610a5757610a566106c8565b5b610a6388828901610984565b925050608086013567ffffffffffffffff811115610a8457610a836106c8565b5b610a9088828901610984565b9150509295509295909350565b610aa681610841565b8114610ab157600080fd5b50565b600081359050610ac381610a9d565b92915050565b600060208284031215610adf57610ade6106c3565b5b6000610aed84828501610ab4565b91505092915050565b7f4e487b7100000000000000000000000000000000000000000000000000000000600052602260045260246000fd5b60006002820490506001821680610b3d57607f821691505b602082108103610b5057610b4f610af6565b5b50919050565b7f4365727469666963617465206e6f7420666f756e640000000000000000000000600082015250565b6000610b8c60158361073b565b9150610b9782610b56565b602082019050919050565b60006020820190508181036000830152610bbb81610b7f565b9050919050565b60008190508160005260206000209050919050565b60006020601f8301049050919050565b600082821b905092915050565b600060088302610c247fffffffffffffffffffffffffffffffffffffffffffffffffffffffffffffffff82610be7565b610c2e8683610be7565b95508019841693508086168417925050509392505050565b6000819050919050565b6000610c6b610c66610c61846106cd565b610c46565b6106cd565b9050919050565b6000819050919050565b610c8583610c50565b610c99610c9182610c72565b848454610bf4565b825550505050565b600090565b610cae610ca1565b610cb9818484610c7c565b505050565b5b81811015610cdd57610cd2600082610ca6565b600181019050610cbf565b5050565b601f821115610d2257610cf381610bc2565b610cfc84610bd7565b81016020851015610d0b578190505b610d1f610d1785610bd7565b830182610cbe565b50505b505050565b600082821c905092915050565b6000610d4560001984600802610d27565b1980831691505092915050565b6000610d5e8383610d34565b9150826002028217905092915050565b610d7782610730565b67ffffffffffffffff811115610d9057610d8f610887565b5b610d9a8254610b25565b610da5828285610ce1565b600060209050601f831160018114610dd85760008415610dc6578287015190505b610dd08582610d52565b865550610e38565b601f198416610de686610bc2565b60005b82811015610e0e57848901518255600182019150602085019450602081019050610de9565b86831015610e2b5784890151610e27601f891682610d34565b8355505b6001600288020188555050505b505050505050565b60006040820190508181036000830152610e5a8185610787565b90508181036020830152610e6e8184610787565b9050939250505056fea2646970667358221220e916ae35045fa47d8560182c37a5836d390c9af5d392687ef285acf0bbc5682f64736f6c634300081e0033",
    "linkReferences": {},
    "deployedLinkReferences": {}
}